:100000000C9434000C9451000C9451000C94510049
:100010000C9451000C9451000C9451000C9451001C
:100020000C9451000C9451000C9451000C9451000C
:100030000C9451000C9451000C9423010C94510029
:100040000C9451000C9451000C94C2000C94E800E4
:100050000C9451000C9451000C9451000C945100DC
:100060000C9451000C94510011241FBECFEFD8E026
:10007000DEBFCDBF11E0A0E0B1E0EAE2F3E002C0F4
:1000800005900D92AE31B107D9F721E0AEE1B1E0B4
:1000900001C01D92A43AB207E1F70E943D010C9401
:1000A00093010C94000087E690E09093C500809344
:1000B000C40088E98093C10086E08093C20008955F
:1000C0002091220130E02F5F3F4F2F733327909113
:1000D0002101921741F0E0912201F0E0EC5DFE4F2A
:1000E0008083209322010895909122018091210123
:1000F000981781F0E0912101F0E0EC5DFE4F8081E6
:100100002091210130E02F5F3F4F2F733327209341
:100110002101089580E008952091200130E02F5FB3
:100120003F4F2F73332790911F01921769F0E09191
:100130002001F0E0EC59FE4F808320932001809154
:10014000C10080628093C100089590912001809148
:100150001F01981307C08091C1008F7D8093C1005B
:1001600080E00895E0911F01F0E0EC59FE4F80819E
:1001700020911F0130E02F5F3F4F2F7333272093D3
:100180001F0108951F920F920FB60F9211242F9303
:100190003F934F935F936F937F938F939F93AF930F
:1001A000BF93EF93FF938091C6000E946000FF9180
:1001B000EF91BF91AF919F918F917F916F915F91DF
:1001C0004F913F912F910F900FBE0F901F90189558
:1001D0001F920F920FB60F9211242F933F934F93BC
:1001E0005F936F937F938F939F93AF93BF93EF939F
:1001F000FF930E94A5008093C600FF91EF91BF91ED
:10020000AF919F918F917F916F915F914F913F91AE
:100210002F910F900FBE0F901F901895CF93DF93E3
:10022000EC018991882319F00E948C00FACFDF91AC
:10023000CF91089583E084BD9CE997BD92E09093AF
:100240006E0085BD08951F920F920FB60F92112474
:100250008F93809123018F5F8093230180912301ED
:10026000843628F081E080931E01109223018F9143
:100270000F900FBE0F901F901895CF93DF93CDB7BF
:10028000DEB7C054D1090FB6F894DEBF0FBECDBFA4
:100290000E9453000E941A017894259A10E080E28F
:1002A000F82E0E9474008823E1F38D3021F5E1E0FF
:1002B000F0E0EC0FFD1FE10FF11D108260E071E036
:1002C000CE0101960E948A01892B11F010E0E9CF3E
:1002D00080911E018823D1F310921E0185B18F25D4
:1002E00085B92D9B03C08AE091E002C083E191E0D3
:1002F0000E940E01EBCF1F33A0F601E0010FE1E0F9
:10030000F0E0EC0FFD1FE10FF11D80830E948C00D7
:10031000102FC7CFFB01DC018D91019080190110D6
:0A032000D9F3990B0895F894FFCF6C
:10032A006C65645F626C696E6B004C4544204F4E8D
:0E033A000D0A004C4544204F46460D0A0000B7
:00000001FF
